{
  "contractName": "Policy",
  "abi": [
    {
      "constant": true,
      "inputs": [
        {
          "name": "",
          "type": "uint256"
        }
      ],
      "name": "options",
      "outputs": [
        {
          "name": "id",
          "type": "uint256"
        },
        {
          "name": "name",
          "type": "string"
        },
        {
          "name": "vote_count",
          "type": "uint256"
        }
      ],
      "payable": false,
      "stateMutability": "view",
      "type": "function"
    },
    {
      "constant": true,
      "inputs": [
        {
          "name": "",
          "type": "address"
        }
      ],
      "name": "voters",
      "outputs": [
        {
          "name": "",
          "type": "bool"
        }
      ],
      "payable": false,
      "stateMutability": "view",
      "type": "function"
    },
    {
      "constant": true,
      "inputs": [
        {
          "name": "",
          "type": "uint256"
        }
      ],
      "name": "data",
      "outputs": [
        {
          "name": "name",
          "type": "string"
        },
        {
          "name": "description",
          "type": "string"
        },
        {
          "name": "creation",
          "type": "string"
        },
        {
          "name": "deadline",
          "type": "string"
        }
      ],
      "payable": false,
      "stateMutability": "view",
      "type": "function"
    },
    {
      "constant": true,
      "inputs": [],
      "name": "option_count",
      "outputs": [
        {
          "name": "",
          "type": "uint256"
        }
      ],
      "payable": false,
      "stateMutability": "view",
      "type": "function"
    },
    {
      "inputs": [
        {
          "name": "_name",
          "type": "string"
        },
        {
          "name": "_description",
          "type": "string"
        },
        {
          "name": "_creation",
          "type": "string"
        },
        {
          "name": "_deadline",
          "type": "string"
        }
      ],
      "payable": false,
      "stateMutability": "nonpayable",
      "type": "constructor"
    },
    {
      "anonymous": false,
      "inputs": [
        {
          "indexed": true,
          "name": "_option_id",
          "type": "uint256"
        }
      ],
      "name": "votedEvent",
      "type": "event"
    },
    {
      "constant": false,
      "inputs": [
        {
          "name": "_option_id",
          "type": "uint256"
        }
      ],
      "name": "vote",
      "outputs": [],
      "payable": false,
      "stateMutability": "nonpayable",
      "type": "function"
    }
  ],
  "bytecode": "0x60806040523480156200001157600080fd5b5060405162000d4138038062000d41833981018060405260808110156200003757600080fd5b8101908080516401000000008111156200005057600080fd5b828101905060208101848111156200006757600080fd5b81518560018202830111640100000000821117156200008557600080fd5b50509291906020018051640100000000811115620000a257600080fd5b82810190506020810184811115620000b957600080fd5b8151856001820283011164010000000082111715620000d757600080fd5b50509291906020018051640100000000811115620000f457600080fd5b828101905060208101848111156200010b57600080fd5b81518560018202830111640100000000821117156200012957600080fd5b505092919060200180516401000000008111156200014657600080fd5b828101905060208101848111156200015d57600080fd5b81518560018202830111640100000000821117156200017b57600080fd5b5050929190505050620001c96040518060400160405280600381526020017f5965730000000000000000000000000000000000000000000000000000000000815250620002cc60201b60201c565b6200020f6040518060400160405280600281526020017f4e6f000000000000000000000000000000000000000000000000000000000000815250620002cc60201b60201c565b6040518060800160405280858152602001848152602001838152602001828152506001600080815260200190815260200160002060008201518160000190805190602001906200026192919062000349565b5060208201518160010190805190602001906200028092919062000349565b5060408201518160020190805190602001906200029f92919062000349565b506060820151816003019080519060200190620002be92919062000349565b5090505050505050620003f8565b60405180606001604052806003548152602001828152602001600081525060008060035481526020019081526020016000206000820151816000015560208201518160010190805190602001906200032692919062000349565b506040820151816002015590505060036000815480929190600101919050555050565b828054600181600116156101000203166002900490600052602060002090601f016020900481019282601f106200038c57805160ff1916838001178555620003bd565b82800160010185558215620003bd579182015b82811115620003bc5782518255916020019190600101906200039f565b5b509050620003cc9190620003d0565b5090565b620003f591905b80821115620003f1576000816000905550600101620003d7565b5090565b90565b61093980620004086000396000f3fe608060405234801561001057600080fd5b50600436106100575760003560e01c80630121b93f1461005c578063409e22051461008a578063a3ec138d1461013f578063f0ba84401461019b578063fe61f6fa14610386575b600080fd5b6100886004803603602081101561007257600080fd5b81019080803590602001909291905050506103a4565b005b6100b6600480360360208110156100a057600080fd5b8101908080359060200190929190505050610595565b6040518084815260200180602001838152602001828103825284818151815260200191508051906020019080838360005b838110156101025780820151818401526020810190506100e7565b50505050905090810190601f16801561012f5780820380516001836020036101000a031916815260200191505b5094505050505060405180910390f35b6101816004803603602081101561015557600080fd5b81019080803573ffffffffffffffffffffffffffffffffffffffff169060200190929190505050610657565b604051808215151515815260200191505060405180910390f35b6101c7600480360360208110156101b157600080fd5b8101908080359060200190929190505050610677565b6040518080602001806020018060200180602001858103855289818151815260200191508051906020019080838360005b838110156102135780820151818401526020810190506101f8565b50505050905090810190601f1680156102405780820380516001836020036101000a031916815260200191505b50858103845288818151815260200191508051906020019080838360005b8381101561027957808201518184015260208101905061025e565b50505050905090810190601f1680156102a65780820380516001836020036101000a031916815260200191505b50858103835287818151815260200191508051906020019080838360005b838110156102df5780820151818401526020810190506102c4565b50505050905090810190601f16801561030c5780820380516001836020036101000a031916815260200191505b50858103825286818151815260200191508051906020019080838360005b8381101561034557808201518184015260208101905061032a565b50505050905090810190601f1680156103725780820380516001836020036101000a031916815260200191505b509850505050505050505060405180910390f35b61038e610907565b6040518082815260200191505060405180910390f35b600260003373ffffffffffffffffffffffffffffffffffffffff1673ffffffffffffffffffffffffffffffffffffffff16815260200190815260200160002060009054906101000a900460ff1615610464576040517f08c379a00000000000000000000000000000000000000000000000000000000081526004018080602001828103825260128152602001807f7573657220616c726561647920766f746564000000000000000000000000000081525060200191505060405180910390fd5b60008110158015610476575060035481105b6104e8576040517f08c379a000000000000000000000000000000000000000000000000000000000815260040180806020018281038252600e8152602001807f696e76616c6964206f7074696f6e00000000000000000000000000000000000081525060200191505060405180910390fd5b6001600260003373ffffffffffffffffffffffffffffffffffffffff1673ffffffffffffffffffffffffffffffffffffffff16815260200190815260200160002060006101000a81548160ff02191690831515021790555060008082815260200190815260200160002060020160008154809291906001019190505550807ffff3c900d938d21d0990d786e819f29b8d05c1ef587b462b939609625b684b1660405160405180910390a250565b6000602052806000526040600020600091509050806000015490806001018054600181600116156101000203166002900480601f0160208091040260200160405190810160405280929190818152602001828054600181600116156101000203166002900480156106475780601f1061061c57610100808354040283529160200191610647565b820191906000526020600020905b81548152906001019060200180831161062a57829003601f168201915b5050505050908060020154905083565b60026020528060005260406000206000915054906101000a900460ff1681565b6001602052806000526040600020600091509050806000018054600181600116156101000203166002900480601f0160208091040260200160405190810160405280929190818152602001828054600181600116156101000203166002900480156107235780601f106106f857610100808354040283529160200191610723565b820191906000526020600020905b81548152906001019060200180831161070657829003601f168201915b505050505090806001018054600181600116156101000203166002900480601f0160208091040260200160405190810160405280929190818152602001828054600181600116156101000203166002900480156107c15780601f10610796576101008083540402835291602001916107c1565b820191906000526020600020905b8154815290600101906020018083116107a457829003601f168201915b505050505090806002018054600181600116156101000203166002900480601f01602080910402602001604051908101604052809291908181526020018280546001816001161561010002031660029004801561085f5780601f106108345761010080835404028352916020019161085f565b820191906000526020600020905b81548152906001019060200180831161084257829003601f168201915b505050505090806003018054600181600116156101000203166002900480601f0160208091040260200160405190810160405280929190818152602001828054600181600116156101000203166002900480156108fd5780601f106108d2576101008083540402835291602001916108fd565b820191906000526020600020905b8154815290600101906020018083116108e057829003601f168201915b5050505050905084565b6003548156fea165627a7a7230582018a6921ca6d0555d2f06b83a05b246505e6287c0200d46cd5b37f57300d99b280029",
  "source": "pragma solidity ^0.5.0;\r\n\r\ncontract Policy {\r\n\r\n    event votedEvent(uint indexed _option_id);\r\n\r\n    struct Option{\r\n        uint id;\r\n        string name;\r\n        uint vote_count;\r\n    }\r\n\r\n    struct Data{\r\n        string name;\r\n        string description;\r\n        string creation;\r\n        string deadline;\r\n    }\r\n\r\n    mapping(uint => Option) public options;\r\n    mapping(uint => Data) public data;\r\n    mapping(address => bool) public voters;\r\n    uint public option_count;\r\n\r\n\r\n    constructor(string memory _name, string memory _description, string memory _creation, string memory _deadline) public {\r\n        add_option(\"Yes\");\r\n        add_option(\"No\");\r\n        data[0] = Data(_name,_description,_creation,_deadline);\r\n    }\r\n\r\n    function add_option(string memory _name) private {\r\n        options[option_count] = Option(option_count, _name, 0);\r\n        option_count++;\r\n    }\r\n\r\n    function vote(uint _option_id) public {\r\n        require(!voters[msg.sender], \"user already voted\");\r\n        require(_option_id >= 0 && _option_id < option_count, \"invalid option\");\r\n        voters[msg.sender] = true;\r\n        options[_option_id].vote_count++;\r\n        emit votedEvent(_option_id);\r\n    }\r\n}\r\n",
  "sourcePath": "C:\\Users\\shark\\Documents\\solonedu\\views\\policy\\contracts\\Policy.sol",
  "compiler": {
    "name": "solc",
    "version": "0.5.8+commit.23d335f2.Emscripten.clang"
  },
  "schemaVersion": "3.0.11",
  "updatedAt": "2019-07-30T23:03:00.938Z",
  "devdoc": {
    "methods": {}
  },
  "userdoc": {
    "methods": {}
  }
}