{
  "contractName": "BudgetCreator",
  "abi": [
    {
      "constant": true,
      "inputs": [],
      "name": "contract_count",
      "outputs": [
        {
          "name": "",
          "type": "uint256"
        }
      ],
      "payable": false,
      "stateMutability": "view",
      "type": "function"
    },
    {
      "constant": true,
      "inputs": [
        {
          "name": "",
          "type": "uint256"
        }
      ],
      "name": "budgets",
      "outputs": [
        {
          "name": "",
          "type": "address"
        }
      ],
      "payable": false,
      "stateMutability": "view",
      "type": "function"
    },
    {
      "payable": true,
      "stateMutability": "payable",
      "type": "fallback"
    },
    {
      "anonymous": false,
      "inputs": [
        {
          "indexed": true,
          "name": "_budget_id",
          "type": "address"
        }
      ],
      "name": "NewContract",
      "type": "event"
    },
    {
      "constant": false,
      "inputs": [
        {
          "name": "_name",
          "type": "string"
        },
        {
          "name": "_amount",
          "type": "uint256"
        },
        {
          "name": "_description",
          "type": "string"
        },
        {
          "name": "_creation",
          "type": "string"
        },
        {
          "name": "_deadline",
          "type": "string"
        },
        {
          "name": "_receiver",
          "type": "address"
        }
      ],
      "name": "add_contract",
      "outputs": [],
      "payable": false,
      "stateMutability": "nonpayable",
      "type": "function"
    },
    {
      "constant": true,
      "inputs": [],
      "name": "getBalance",
      "outputs": [
        {
          "name": "",
          "type": "uint256"
        }
      ],
      "payable": false,
      "stateMutability": "view",
      "type": "function"
    },
    {
      "constant": false,
      "inputs": [
        {
          "name": "amount",
          "type": "uint256"
        }
      ],
      "name": "deposit",
      "outputs": [],
      "payable": true,
      "stateMutability": "payable",
      "type": "function"
    }
  ],
  "bytecode": "0x608060405234801561001057600080fd5b5061232c806100206000396000f3fe60806040526004361061004a5760003560e01c806312065fe01461004c5780632114023d146100775780633227e8601461032e57806369f0e05f14610359578063b6b55f25146103d4575b005b34801561005857600080fd5b50610061610402565b6040518082815260200191505060405180910390f35b34801561008357600080fd5b5061032c600480360360c081101561009a57600080fd5b81019080803590602001906401000000008111156100b757600080fd5b8201836020820111156100c957600080fd5b803590602001918460018302840111640100000000831117156100eb57600080fd5b91908080601f016020809104026020016040519081016040528093929190818152602001838380828437600081840152601f19601f820116905080830192505050505050509192919290803590602001909291908035906020019064010000000081111561015857600080fd5b82018360208201111561016a57600080fd5b8035906020019184600183028401116401000000008311171561018c57600080fd5b91908080601f016020809104026020016040519081016040528093929190818152602001838380828437600081840152601f19601f820116905080830192505050505050509192919290803590602001906401000000008111156101ef57600080fd5b82018360208201111561020157600080fd5b8035906020019184600183028401116401000000008311171561022357600080fd5b91908080601f016020809104026020016040519081016040528093929190818152602001838380828437600081840152601f19601f8201169050808301925050505050505091929192908035906020019064010000000081111561028657600080fd5b82018360208201111561029857600080fd5b803590602001918460018302840111640100000000831117156102ba57600080fd5b91908080601f016020809104026020016040519081016040528093929190818152602001838380828437600081840152601f19601f820116905080830192505050505050509192919290803573ffffffffffffffffffffffffffffffffffffffff169060200190929190505050610421565b005b34801561033a57600080fd5b50610343610720565b6040518082815260200191505060405180910390f35b34801561036557600080fd5b506103926004803603602081101561037c57600080fd5b8101908080359060200190929190505050610726565b604051808273ffffffffffffffffffffffffffffffffffffffff1673ffffffffffffffffffffffffffffffffffffffff16815260200191505060405180910390f35b610400600480360360208110156103ea57600080fd5b8101908080359060200190929190505050610759565b005b60003073ffffffffffffffffffffffffffffffffffffffff1631905090565b85858585858560405161043390610768565b80806020018781526020018060200180602001806020018673ffffffffffffffffffffffffffffffffffffffff1673ffffffffffffffffffffffffffffffffffffffff16815260200185810385528b818151815260200191508051906020019080838360005b838110156104b4578082015181840152602081019050610499565b50505050905090810190601f1680156104e15780820380516001836020036101000a031916815260200191505b50858103845289818151815260200191508051906020019080838360005b8381101561051a5780820151818401526020810190506104ff565b50505050905090810190601f1680156105475780820380516001836020036101000a031916815260200191505b50858103835288818151815260200191508051906020019080838360005b83811015610580578082015181840152602081019050610565565b50505050905090810190601f1680156105ad5780820380516001836020036101000a031916815260200191505b50858103825287818151815260200191508051906020019080838360005b838110156105e65780820151818401526020810190506105cb565b50505050905090810190601f1680156106135780820380516001836020036101000a031916815260200191505b509a5050505050505050505050604051809103906000f08015801561063c573d6000803e3d6000fd5b50600080600154815260200190815260200160002060006101000a81548173ffffffffffffffffffffffffffffffffffffffff021916908373ffffffffffffffffffffffffffffffffffffffff160217905550600080600154815260200190815260200160002060009054906101000a900473ffffffffffffffffffffffffffffffffffffffff1673ffffffffffffffffffffffffffffffffffffffff167f387ea218537e939551af33bbc2dd6c53b1fee55d377a0dce288258f972cb3a9c60405160405180910390a2600160008154809291906001019190505550505050505050565b60015481565b60006020528060005260406000206000915054906101000a900473ffffffffffffffffffffffffffffffffffffffff1681565b80341461076557600080fd5b50565b611b8a80620007778339019056fe60806040523480156200001157600080fd5b5060405162001b8a38038062001b8a833981018060405260c08110156200003757600080fd5b8101908080516401000000008111156200005057600080fd5b828101905060208101848111156200006757600080fd5b81518560018202830111640100000000821117156200008557600080fd5b5050929190602001805190602001909291908051640100000000811115620000ac57600080fd5b82810190506020810184811115620000c357600080fd5b8151856001820283011164010000000082111715620000e157600080fd5b50509291906020018051640100000000811115620000fe57600080fd5b828101905060208101848111156200011557600080fd5b81518560018202830111640100000000821117156200013357600080fd5b505092919060200180516401000000008111156200015057600080fd5b828101905060208101848111156200016757600080fd5b81518560018202830111640100000000821117156200018557600080fd5b505092919060200180519060200190929190505050620001e06040518060400160405280600381526020017f59657300000000000000000000000000000000000000000000000000000000008152506200038160201b60201c565b620002266040518060400160405280600281526020017f4e6f0000000000000000000000000000000000000000000000000000000000008152506200038160201b60201c565b6040518060e001604052808781526020018681526020018581526020018481526020018381526020016000151581526020018273ffffffffffffffffffffffffffffffffffffffff16815250600560008081526020019081526020016000206000820151816000019080519060200190620002a3929190620003ff565b50602082015181600101556040820151816002019080519060200190620002cc929190620003ff565b506060820151816003019080519060200190620002eb929190620003ff565b5060808201518160040190805190602001906200030a929190620003ff565b5060a08201518160050160006101000a81548160ff02191690831515021790555060c08201518160050160016101000a81548173ffffffffffffffffffffffffffffffffffffffff021916908373ffffffffffffffffffffffffffffffffffffffff160217905550905050505050505050620004ae565b604051806060016040528060065481526020018281526020016000815250600360006006548152602001908152602001600020600082015181600001556020820151816001019080519060200190620003dc929190620003ff565b506040820151816002015590505060066000815480929190600101919050555050565b828054600181600116156101000203166002900490600052602060002090601f016020900481019282601f106200044257805160ff191683800117855562000473565b8280016001018555821562000473579182015b828111156200047257825182559160200191906001019062000455565b5b50905062000482919062000486565b5090565b620004ab91905b80821115620004a75760008160009055506001016200048d565b5090565b90565b6116cc80620004be6000396000f3fe608060405234801561001057600080fd5b50600436106100ea5760003560e01c806370a082311161008c578063a9059cbb11610066578063a9059cbb14610466578063dd62ed3e146104cc578063f0ba844014610544578063fe61f6fa14610774576100ea565b806370a082311461034c578063a3ec138d146103a4578063a457c2d714610400576100ea565b806323b872dd116100c857806323b872dd146101a15780632415ef4f146102275780633950935114610231578063409e220514610297576100ea565b80630121b93f146100ef578063095ea7b31461011d57806318160ddd14610183575b600080fd5b61011b6004803603602081101561010557600080fd5b8101908080359060200190929190505050610792565b005b6101696004803603604081101561013357600080fd5b81019080803573ffffffffffffffffffffffffffffffffffffffff16906020019092919080359060200190929190505050610984565b604051808215151515815260200191505060405180910390f35b61018b61099b565b6040518082815260200191505060405180910390f35b61020d600480360360608110156101b757600080fd5b81019080803573ffffffffffffffffffffffffffffffffffffffff169060200190929190803573ffffffffffffffffffffffffffffffffffffffff169060200190929190803590602001909291905050506109a5565b604051808215151515815260200191505060405180910390f35b61022f610a56565b005b61027d6004803603604081101561024757600080fd5b81019080803573ffffffffffffffffffffffffffffffffffffffff16906020019092919080359060200190929190505050610a87565b604051808215151515815260200191505060405180910390f35b6102c3600480360360208110156102ad57600080fd5b8101908080359060200190929190505050610b2c565b6040518084815260200180602001838152602001828103825284818151815260200191508051906020019080838360005b8381101561030f5780820151818401526020810190506102f4565b50505050905090810190601f16801561033c5780820380516001836020036101000a031916815260200191505b5094505050505060405180910390f35b61038e6004803603602081101561036257600080fd5b81019080803573ffffffffffffffffffffffffffffffffffffffff169060200190929190505050610bee565b6040518082815260200191505060405180910390f35b6103e6600480360360208110156103ba57600080fd5b81019080803573ffffffffffffffffffffffffffffffffffffffff169060200190929190505050610c36565b604051808215151515815260200191505060405180910390f35b61044c6004803603604081101561041657600080fd5b81019080803573ffffffffffffffffffffffffffffffffffffffff16906020019092919080359060200190929190505050610c56565b604051808215151515815260200191505060405180910390f35b6104b26004803603604081101561047c57600080fd5b81019080803573ffffffffffffffffffffffffffffffffffffffff16906020019092919080359060200190929190505050610cfb565b604051808215151515815260200191505060405180910390f35b61052e600480360360408110156104e257600080fd5b81019080803573ffffffffffffffffffffffffffffffffffffffff169060200190929190803573ffffffffffffffffffffffffffffffffffffffff169060200190929190505050610d12565b6040518082815260200191505060405180910390f35b6105706004803603602081101561055a57600080fd5b8101908080359060200190929190505050610d99565b6040518080602001888152602001806020018060200180602001871515151581526020018673ffffffffffffffffffffffffffffffffffffffff1673ffffffffffffffffffffffffffffffffffffffff16815260200185810385528c818151815260200191508051906020019080838360005b838110156105fe5780820151818401526020810190506105e3565b50505050905090810190601f16801561062b5780820380516001836020036101000a031916815260200191505b5085810384528a818151815260200191508051906020019080838360005b83811015610664578082015181840152602081019050610649565b50505050905090810190601f1680156106915780820380516001836020036101000a031916815260200191505b50858103835289818151815260200191508051906020019080838360005b838110156106ca5780820151818401526020810190506106af565b50505050905090810190601f1680156106f75780820380516001836020036101000a031916815260200191505b50858103825288818151815260200191508051906020019080838360005b83811015610730578082015181840152602081019050610715565b50505050905090810190601f16801561075d5780820380516001836020036101000a031916815260200191505b509b50505050505050505050505060405180910390f35b61077c611068565b6040518082815260200191505060405180910390f35b600460003373ffffffffffffffffffffffffffffffffffffffff1673ffffffffffffffffffffffffffffffffffffffff16815260200190815260200160002060009054906101000a900460ff1615610852576040517f08c379a00000000000000000000000000000000000000000000000000000000081526004018080602001828103825260128152602001807f7573657220616c726561647920766f746564000000000000000000000000000081525060200191505060405180910390fd5b60008110158015610864575060065481105b6108d6576040517f08c379a000000000000000000000000000000000000000000000000000000000815260040180806020018281038252600e8152602001807f696e76616c6964206f7074696f6e00000000000000000000000000000000000081525060200191505060405180910390fd5b6001600460003373ffffffffffffffffffffffffffffffffffffffff1673ffffffffffffffffffffffffffffffffffffffff16815260200190815260200160002060006101000a81548160ff0219169083151502179055506003600082815260200190815260200160002060020160008154809291906001019190505550807ffff3c900d938d21d0990d786e819f29b8d05c1ef587b462b939609625b684b1660405160405180910390a250565b600061099133848461106e565b6001905092915050565b6000600254905090565b60006109b2848484611265565b610a4b8433610a4685600160008a73ffffffffffffffffffffffffffffffffffffffff1673ffffffffffffffffffffffffffffffffffffffff16815260200190815260200160002060003373ffffffffffffffffffffffffffffffffffffffff1673ffffffffffffffffffffffffffffffffffffffff1681526020019081526020016000205461150190919063ffffffff16565b61106e565b600190509392505050565b60016005600080815260200190815260200160002060050160006101000a81548160ff021916908315150217905550565b6000610b223384610b1d85600160003373ffffffffffffffffffffffffffffffffffffffff1673ffffffffffffffffffffffffffffffffffffffff16815260200190815260200160002060008973ffffffffffffffffffffffffffffffffffffffff1673ffffffffffffffffffffffffffffffffffffffff1681526020019081526020016000205461158a90919063ffffffff16565b61106e565b6001905092915050565b6003602052806000526040600020600091509050806000015490806001018054600181600116156101000203166002900480601f016020809104026020016040519081016040528092919081815260200182805460018160011615610100020316600290048015610bde5780601f10610bb357610100808354040283529160200191610bde565b820191906000526020600020905b815481529060010190602001808311610bc157829003601f168201915b5050505050908060020154905083565b60008060008373ffffffffffffffffffffffffffffffffffffffff1673ffffffffffffffffffffffffffffffffffffffff168152602001908152602001600020549050919050565b60046020528060005260406000206000915054906101000a900460ff1681565b6000610cf13384610cec85600160003373ffffffffffffffffffffffffffffffffffffffff1673ffffffffffffffffffffffffffffffffffffffff16815260200190815260200160002060008973ffffffffffffffffffffffffffffffffffffffff1673ffffffffffffffffffffffffffffffffffffffff1681526020019081526020016000205461150190919063ffffffff16565b61106e565b6001905092915050565b6000610d08338484611265565b6001905092915050565b6000600160008473ffffffffffffffffffffffffffffffffffffffff1673ffffffffffffffffffffffffffffffffffffffff16815260200190815260200160002060008373ffffffffffffffffffffffffffffffffffffffff1673ffffffffffffffffffffffffffffffffffffffff16815260200190815260200160002054905092915050565b6005602052806000526040600020600091509050806000018054600181600116156101000203166002900480601f016020809104026020016040519081016040528092919081815260200182805460018160011615610100020316600290048015610e455780601f10610e1a57610100808354040283529160200191610e45565b820191906000526020600020905b815481529060010190602001808311610e2857829003601f168201915b505050505090806001015490806002018054600181600116156101000203166002900480601f016020809104026020016040519081016040528092919081815260200182805460018160011615610100020316600290048015610ee95780601f10610ebe57610100808354040283529160200191610ee9565b820191906000526020600020905b815481529060010190602001808311610ecc57829003601f168201915b505050505090806003018054600181600116156101000203166002900480601f016020809104026020016040519081016040528092919081815260200182805460018160011615610100020316600290048015610f875780601f10610f5c57610100808354040283529160200191610f87565b820191906000526020600020905b815481529060010190602001808311610f6a57829003601f168201915b505050505090806004018054600181600116156101000203166002900480601f0160208091040260200160405190810160405280929190818152602001828054600181600116156101000203166002900480156110255780601f10610ffa57610100808354040283529160200191611025565b820191906000526020600020905b81548152906001019060200180831161100857829003601f168201915b5050505050908060050160009054906101000a900460ff16908060050160019054906101000a900473ffffffffffffffffffffffffffffffffffffffff16905087565b60065481565b600073ffffffffffffffffffffffffffffffffffffffff168373ffffffffffffffffffffffffffffffffffffffff1614156110f4576040517f08c379a000000000000000000000000000000000000000000000000000000000815260040180806020018281038252602481526020018061167d6024913960400191505060405180910390fd5b600073ffffffffffffffffffffffffffffffffffffffff168273ffffffffffffffffffffffffffffffffffffffff16141561117a576040517f08c379a00000000000000000000000000000000000000000000000000000000081526004018080602001828103825260228152602001806116366022913960400191505060405180910390fd5b80600160008573ffffffffffffffffffffffffffffffffffffffff1673ffffffffffffffffffffffffffffffffffffffff16815260200190815260200160002060008473ffffffffffffffffffffffffffffffffffffffff1673ffffffffffffffffffffffffffffffffffffffff168152602001908152602001600020819055508173ffffffffffffffffffffffffffffffffffffffff168373ffffffffffffffffffffffffffffffffffffffff167f8c5be1e5ebec7d5bd14f71427d1e84f3dd0314c0f7b2291e5b200ac8c7c3b925836040518082815260200191505060405180910390a3505050565b600073ffffffffffffffffffffffffffffffffffffffff168373ffffffffffffffffffffffffffffffffffffffff1614156112eb576040517f08c379a00000000000000000000000000000000000000000000000000000000081526004018080602001828103825260258152602001806116586025913960400191505060405180910390fd5b600073ffffffffffffffffffffffffffffffffffffffff168273ffffffffffffffffffffffffffffffffffffffff161415611371576040517f08c379a00000000000000000000000000000000000000000000000000000000081526004018080602001828103825260238152602001806116136023913960400191505060405180910390fd5b6113c2816000808673ffffffffffffffffffffffffffffffffffffffff1673ffffffffffffffffffffffffffffffffffffffff1681526020019081526020016000205461150190919063ffffffff16565b6000808573ffffffffffffffffffffffffffffffffffffffff1673ffffffffffffffffffffffffffffffffffffffff16815260200190815260200160002081905550611455816000808573ffffffffffffffffffffffffffffffffffffffff1673ffffffffffffffffffffffffffffffffffffffff1681526020019081526020016000205461158a90919063ffffffff16565b6000808473ffffffffffffffffffffffffffffffffffffffff1673ffffffffffffffffffffffffffffffffffffffff168152602001908152602001600020819055508173ffffffffffffffffffffffffffffffffffffffff168373ffffffffffffffffffffffffffffffffffffffff167fddf252ad1be2c89b69c2b068fc378daa952ba7f163c4a11628f55a4df523b3ef836040518082815260200191505060405180910390a3505050565b600082821115611579576040517f08c379a000000000000000000000000000000000000000000000000000000000815260040180806020018281038252601e8152602001807f536166654d6174683a207375627472616374696f6e206f766572666c6f77000081525060200191505060405180910390fd5b600082840390508091505092915050565b600080828401905083811015611608576040517f08c379a000000000000000000000000000000000000000000000000000000000815260040180806020018281038252601b8152602001807f536166654d6174683a206164646974696f6e206f766572666c6f77000000000081525060200191505060405180910390fd5b809150509291505056fe45524332303a207472616e7366657220746f20746865207a65726f206164647265737345524332303a20617070726f766520746f20746865207a65726f206164647265737345524332303a207472616e736665722066726f6d20746865207a65726f206164647265737345524332303a20617070726f76652066726f6d20746865207a65726f2061646472657373a165627a7a72305820d081342fc9dafbe46e3ad24a563b071951ca0d4ec5d30b0aa4a3a11df2c4ecc70029a165627a7a72305820bbfe4caeddce0464ee130ffa616a6cee987e8376d2e60f84524c209852d4ca930029",
  "source": "pragma solidity ^0.5.0;\n\nimport \"./Budget.sol\";\n\ncontract BudgetCreator {\n    event NewContract(address indexed _budget_id);\n\n    //address public withdrawer; //basically owner of an instance of this contract\n\n    mapping(uint => Budget) public budgets;\n    uint public contract_count;\n\n    function add_contract(string memory _name,\n                          uint _amount,\n                          string memory _description,\n                          string memory _creation,\n                          string memory _deadline,\n                          address _receiver\n                          ) public {\n        budgets[contract_count] = new Budget(_name, _amount, _description, _creation, _deadline, _receiver);\n        emit NewContract(address(budgets[contract_count]));\n        contract_count++;\n        //withdrawer = msg.sender;\n    }\n\n    function () external payable {\n        //0xaD99326B61c688472a55055C4C78B2cFB70393D2.transfer(msg.value);\n    }\n\n    function getBalance() public view returns (uint) {\n        return address(this).balance;\n    }\n\n    function deposit(uint amount) public payable {\n        require(msg.value == amount);\n    }\n}",
  "sourcePath": "/home/kjamal00/blockchain/solonedu/views/budget/contracts/BudgetCreator.sol",
  "compiler": {
    "name": "solc",
    "version": "0.5.8+commit.23d335f2.Emscripten.clang"
  },
  "schemaVersion": "3.0.11",
  "updatedAt": "2019-08-01T21:27:01.631Z",
  "devdoc": {
    "methods": {}
  },
  "userdoc": {
    "methods": {}
  }
}