{
  "contractName": "PolicyCreator",
  "abi": [
    {
      "constant": true,
      "inputs": [],
      "name": "contract_count",
      "outputs": [
        {
          "name": "",
          "type": "uint256"
        }
      ],
      "payable": false,
      "stateMutability": "view",
      "type": "function"
    },
    {
      "constant": true,
      "inputs": [
        {
          "name": "",
          "type": "uint256"
        }
      ],
      "name": "policies",
      "outputs": [
        {
          "name": "",
          "type": "address"
        }
      ],
      "payable": false,
      "stateMutability": "view",
      "type": "function"
    },
    {
      "anonymous": false,
      "inputs": [
        {
          "indexed": true,
          "name": "_policy_id",
          "type": "address"
        }
      ],
      "name": "NewContract",
      "type": "event"
    },
    {
      "constant": false,
      "inputs": [
        {
          "name": "_name",
          "type": "string"
        },
        {
          "name": "_description",
          "type": "string"
        },
        {
          "name": "_creation",
          "type": "string"
        },
        {
          "name": "_deadline",
          "type": "string"
        }
      ],
      "name": "add_contract",
      "outputs": [],
      "payable": false,
      "stateMutability": "nonpayable",
      "type": "function"
    }
  ],
  "bytecode": "0x608060405234801561001057600080fd5b50611437806100206000396000f3fe608060405234801561001057600080fd5b50600436106100415760003560e01c80633227e86014610046578063b9d35a1e14610064578063d3e89483146102e4575b600080fd5b61004e610352565b6040518082815260200191505060405180910390f35b6102e26004803603608081101561007a57600080fd5b810190808035906020019064010000000081111561009757600080fd5b8201836020820111156100a957600080fd5b803590602001918460018302840111640100000000831117156100cb57600080fd5b91908080601f016020809104026020016040519081016040528093929190818152602001838380828437600081840152601f19601f8201169050808301925050505050505091929192908035906020019064010000000081111561012e57600080fd5b82018360208201111561014057600080fd5b8035906020019184600183028401116401000000008311171561016257600080fd5b91908080601f016020809104026020016040519081016040528093929190818152602001838380828437600081840152601f19601f820116905080830192505050505050509192919290803590602001906401000000008111156101c557600080fd5b8201836020820111156101d757600080fd5b803590602001918460018302840111640100000000831117156101f957600080fd5b91908080601f016020809104026020016040519081016040528093929190818152602001838380828437600081840152601f19601f8201169050808301925050505050505091929192908035906020019064010000000081111561025c57600080fd5b82018360208201111561026e57600080fd5b8035906020019184600183028401116401000000008311171561029057600080fd5b91908080601f016020809104026020016040519081016040528093929190818152602001838380828437600081840152601f19601f820116905080830192505050505050509192919290505050610358565b005b610310600480360360208110156102fa57600080fd5b8101908080359060200190929190505050610619565b604051808273ffffffffffffffffffffffffffffffffffffffff1673ffffffffffffffffffffffffffffffffffffffff16815260200191505060405180910390f35b60015481565b838383836040516103689061064c565b8080602001806020018060200180602001858103855289818151815260200191508051906020019080838360005b838110156103b1578082015181840152602081019050610396565b50505050905090810190601f1680156103de5780820380516001836020036101000a031916815260200191505b50858103845288818151815260200191508051906020019080838360005b838110156104175780820151818401526020810190506103fc565b50505050905090810190601f1680156104445780820380516001836020036101000a031916815260200191505b50858103835287818151815260200191508051906020019080838360005b8381101561047d578082015181840152602081019050610462565b50505050905090810190601f1680156104aa5780820380516001836020036101000a031916815260200191505b50858103825286818151815260200191508051906020019080838360005b838110156104e35780820151818401526020810190506104c8565b50505050905090810190601f1680156105105780820380516001836020036101000a031916815260200191505b5098505050505050505050604051809103906000f080158015610537573d6000803e3d6000fd5b50600080600154815260200190815260200160002060006101000a81548173ffffffffffffffffffffffffffffffffffffffff021916908373ffffffffffffffffffffffffffffffffffffffff160217905550600080600154815260200190815260200160002060009054906101000a900473ffffffffffffffffffffffffffffffffffffffff1673ffffffffffffffffffffffffffffffffffffffff167f387ea218537e939551af33bbc2dd6c53b1fee55d377a0dce288258f972cb3a9c60405160405180910390a260016000815480929190600101919050555050505050565b60006020528060005260406000206000915054906101000a900473ffffffffffffffffffffffffffffffffffffffff1681565b610db28061065a8339019056fe60806040523480156200001157600080fd5b5060405162000db238038062000db2833981018060405260808110156200003757600080fd5b8101908080516401000000008111156200005057600080fd5b828101905060208101848111156200006757600080fd5b81518560018202830111640100000000821117156200008557600080fd5b50509291906020018051640100000000811115620000a257600080fd5b82810190506020810184811115620000b957600080fd5b8151856001820283011164010000000082111715620000d757600080fd5b50509291906020018051640100000000811115620000f457600080fd5b828101905060208101848111156200010b57600080fd5b81518560018202830111640100000000821117156200012957600080fd5b505092919060200180516401000000008111156200014657600080fd5b828101905060208101848111156200015d57600080fd5b81518560018202830111640100000000821117156200017b57600080fd5b5050929190505050620001c96040518060400160405280600381526020017f59657300000000000000000000000000000000000000000000000000000000008152506200027d60201b60201c565b6200020f6040518060400160405280600281526020017f4e6f0000000000000000000000000000000000000000000000000000000000008152506200027d60201b60201c565b836003908051906020019062000227929190620002fa565b50826004908051906020019062000240929190620002fa565b50816005908051906020019062000259929190620002fa565b50806006908051906020019062000272929190620002fa565b505050505062000430565b6040518060600160405280600254815260200182815260200160008152506000806002548152602001908152602001600020600082015181600001556020820151816001019080519060200190620002d792919062000381565b506040820151816002015590505060026000815480929190600101919050555050565b828054600181600116156101000203166002900490600052602060002090601f016020900481019282601f106200033d57805160ff19168380011785556200036e565b828001600101855582156200036e579182015b828111156200036d57825182559160200191906001019062000350565b5b5090506200037d919062000408565b5090565b828054600181600116156101000203166002900490600052602060002090601f016020900481019282601f10620003c457805160ff1916838001178555620003f5565b82800160010185558215620003f5579182015b82811115620003f4578251825591602001919060010190620003d7565b5b50905062000404919062000408565b5090565b6200042d91905b80821115620004295760008160009055506001016200040f565b5090565b90565b61097280620004406000396000f3fe608060405234801561001057600080fd5b50600436106100885760003560e01c8063409e22051161005b578063409e2205146102445780637284e416146102f9578063a3ec138d1461037c578063fe61f6fa146103d857610088565b80630121b93f1461008d57806306fdde03146100bb57806313845d2f1461013e57806329dcb0cf146101c1575b600080fd5b6100b9600480360360208110156100a357600080fd5b81019080803590602001909291905050506103f6565b005b6100c36105e6565b6040518080602001828103825283818151815260200191508051906020019080838360005b838110156101035780820151818401526020810190506100e8565b50505050905090810190601f1680156101305780820380516001836020036101000a031916815260200191505b509250505060405180910390f35b610146610684565b6040518080602001828103825283818151815260200191508051906020019080838360005b8381101561018657808201518184015260208101905061016b565b50505050905090810190601f1680156101b35780820380516001836020036101000a031916815260200191505b509250505060405180910390f35b6101c9610722565b6040518080602001828103825283818151815260200191508051906020019080838360005b838110156102095780820151818401526020810190506101ee565b50505050905090810190601f1680156102365780820380516001836020036101000a031916815260200191505b509250505060405180910390f35b6102706004803603602081101561025a57600080fd5b81019080803590602001909291905050506107c0565b6040518084815260200180602001838152602001828103825284818151815260200191508051906020019080838360005b838110156102bc5780820151818401526020810190506102a1565b50505050905090810190601f1680156102e95780820380516001836020036101000a031916815260200191505b5094505050505060405180910390f35b610301610882565b6040518080602001828103825283818151815260200191508051906020019080838360005b83811015610341578082015181840152602081019050610326565b50505050905090810190601f16801561036e5780820380516001836020036101000a031916815260200191505b509250505060405180910390f35b6103be6004803603602081101561039257600080fd5b81019080803573ffffffffffffffffffffffffffffffffffffffff169060200190929190505050610920565b604051808215151515815260200191505060405180910390f35b6103e0610940565b6040518082815260200191505060405180910390f35b600160003373ffffffffffffffffffffffffffffffffffffffff1673ffffffffffffffffffffffffffffffffffffffff16815260200190815260200160002060009054906101000a900460ff16156104b6576040517f08c379a00000000000000000000000000000000000000000000000000000000081526004018080602001828103825260128152602001807f7573657220616c726561647920766f746564000000000000000000000000000081525060200191505060405180910390fd5b600081101580156104c8575060025481105b61053a576040517f08c379a000000000000000000000000000000000000000000000000000000000815260040180806020018281038252600e8152602001807f696e76616c6964206f7074696f6e00000000000000000000000000000000000081525060200191505060405180910390fd5b60018060003373ffffffffffffffffffffffffffffffffffffffff1673ffffffffffffffffffffffffffffffffffffffff16815260200190815260200160002060006101000a81548160ff02191690831515021790555060008082815260200190815260200160002060020160008154809291906001019190505550807ffff3c900d938d21d0990d786e819f29b8d05c1ef587b462b939609625b684b1660405160405180910390a250565b60038054600181600116156101000203166002900480601f01602080910402602001604051908101604052809291908181526020018280546001816001161561010002031660029004801561067c5780601f106106515761010080835404028352916020019161067c565b820191906000526020600020905b81548152906001019060200180831161065f57829003601f168201915b505050505081565b60058054600181600116156101000203166002900480601f01602080910402602001604051908101604052809291908181526020018280546001816001161561010002031660029004801561071a5780601f106106ef5761010080835404028352916020019161071a565b820191906000526020600020905b8154815290600101906020018083116106fd57829003601f168201915b505050505081565b60068054600181600116156101000203166002900480601f0160208091040260200160405190810160405280929190818152602001828054600181600116156101000203166002900480156107b85780601f1061078d576101008083540402835291602001916107b8565b820191906000526020600020905b81548152906001019060200180831161079b57829003601f168201915b505050505081565b6000602052806000526040600020600091509050806000015490806001018054600181600116156101000203166002900480601f0160208091040260200160405190810160405280929190818152602001828054600181600116156101000203166002900480156108725780601f1061084757610100808354040283529160200191610872565b820191906000526020600020905b81548152906001019060200180831161085557829003601f168201915b5050505050908060020154905083565b60048054600181600116156101000203166002900480601f0160208091040260200160405190810160405280929190818152602001828054600181600116156101000203166002900480156109185780601f106108ed57610100808354040283529160200191610918565b820191906000526020600020905b8154815290600101906020018083116108fb57829003601f168201915b505050505081565b60016020528060005260406000206000915054906101000a900460ff1681565b6002548156fea165627a7a7230582049facd981f7001809707343246826b09441d3a69702b526434350165b2813bdb0029a165627a7a72305820f5395bb408f7619a6f9a135e6f45daed2424d2e58226327b7cd45dab98629cf00029",
  "source": "pragma solidity ^0.5.0;\n\nimport \"./Policy.sol\";\n\ncontract PolicyCreator {\n    event NewContract(address indexed _policy_id);\n\n    mapping(uint => Policy) public policies;\n    uint public contract_count;\n\n    function add_contract(string memory _name, string memory _description, string memory _creation, string memory _deadline) public {\n        policies[contract_count] = new Policy(_name, _description, _creation, _deadline);\n        emit NewContract(address(policies[contract_count]));\n        contract_count++;\n    }\n\n}",
  "sourcePath": "/home/kjamal00/blockchain/solonedu/views/policy/contracts/PolicyCreator.sol",
  "compiler": {
    "name": "solc",
    "version": "0.5.8+commit.23d335f2.Emscripten.clang"
  },
  "schemaVersion": "3.0.11",
  "updatedAt": "2019-07-30T18:57:09.480Z",
  "devdoc": {
    "methods": {}
  },
  "userdoc": {
    "methods": {}
  }
}