{
  "contractName": "BudgetCreator",
  "abi": [
    {
      "constant": true,
      "inputs": [],
      "name": "contract_count",
      "outputs": [
        {
          "name": "",
          "type": "uint256"
        }
      ],
      "payable": false,
      "stateMutability": "view",
      "type": "function"
    },
    {
      "constant": true,
      "inputs": [
        {
          "name": "",
          "type": "uint256"
        }
      ],
      "name": "budgets",
      "outputs": [
        {
          "name": "",
          "type": "address"
        }
      ],
      "payable": false,
      "stateMutability": "view",
      "type": "function"
    },
    {
      "payable": true,
      "stateMutability": "payable",
      "type": "fallback"
    },
    {
      "anonymous": false,
      "inputs": [
        {
          "indexed": true,
          "name": "_budget_id",
          "type": "address"
        }
      ],
      "name": "NewContract",
      "type": "event"
    },
    {
      "constant": false,
      "inputs": [
        {
          "name": "_name",
          "type": "string"
        },
        {
          "name": "_amount",
          "type": "uint256"
        },
        {
          "name": "_description",
          "type": "string"
        },
        {
          "name": "_creation",
          "type": "string"
        },
        {
          "name": "_deadline",
          "type": "string"
        },
        {
          "name": "_sender",
          "type": "address"
        },
        {
          "name": "_receiver",
          "type": "address"
        }
      ],
      "name": "add_contract",
      "outputs": [],
      "payable": false,
      "stateMutability": "nonpayable",
      "type": "function"
    },
    {
      "constant": true,
      "inputs": [],
      "name": "getBalance",
      "outputs": [
        {
          "name": "",
          "type": "uint256"
        }
      ],
      "payable": false,
      "stateMutability": "view",
      "type": "function"
    },
    {
      "constant": false,
      "inputs": [
        {
          "name": "amount",
          "type": "uint256"
        }
      ],
      "name": "deposit",
      "outputs": [],
      "payable": true,
      "stateMutability": "payable",
      "type": "function"
    }
  ],
  "bytecode": "0x608060405234801561001057600080fd5b506123de806100206000396000f3fe608060405260043610620000505760003560e01c806312065fe014620000525780631d10756514620000805780633227e860146200036757806369f0e05f1462000395578063b6b55f251462000414575b005b3480156200005f57600080fd5b506200006a62000445565b6040518082815260200191505060405180910390f35b3480156200008d57600080fd5b5062000365600480360360e0811015620000a657600080fd5b8101908080359060200190640100000000811115620000c457600080fd5b820183602082011115620000d757600080fd5b80359060200191846001830284011164010000000083111715620000fa57600080fd5b91908080601f016020809104026020016040519081016040528093929190818152602001838380828437600081840152601f19601f82011690508083019250505050505050919291929080359060200190929190803590602001906401000000008111156200016857600080fd5b8201836020820111156200017b57600080fd5b803590602001918460018302840111640100000000831117156200019e57600080fd5b91908080601f016020809104026020016040519081016040528093929190818152602001838380828437600081840152601f19601f820116905080830192505050505050509192919290803590602001906401000000008111156200020257600080fd5b8201836020820111156200021557600080fd5b803590602001918460018302840111640100000000831117156200023857600080fd5b91908080601f016020809104026020016040519081016040528093929190818152602001838380828437600081840152601f19601f820116905080830192505050505050509192919290803590602001906401000000008111156200029c57600080fd5b820183602082011115620002af57600080fd5b80359060200191846001830284011164010000000083111715620002d257600080fd5b91908080601f016020809104026020016040519081016040528093929190818152602001838380828437600081840152601f19601f820116905080830192505050505050509192919290803573ffffffffffffffffffffffffffffffffffffffff169060200190929190803573ffffffffffffffffffffffffffffffffffffffff16906020019092919050505062000464565b005b3480156200037457600080fd5b506200037f620007a7565b6040518082815260200191505060405180910390f35b348015620003a257600080fd5b50620003d260048036036020811015620003bb57600080fd5b8101908080359060200190929190505050620007ad565b604051808273ffffffffffffffffffffffffffffffffffffffff1673ffffffffffffffffffffffffffffffffffffffff16815260200191505060405180910390f35b62000443600480360360208110156200042c57600080fd5b8101908080359060200190929190505050620007e0565b005b60003073ffffffffffffffffffffffffffffffffffffffff1631905090565b868686868686866040516200047990620007f0565b80806020018881526020018060200180602001806020018773ffffffffffffffffffffffffffffffffffffffff1673ffffffffffffffffffffffffffffffffffffffff1681526020018673ffffffffffffffffffffffffffffffffffffffff1673ffffffffffffffffffffffffffffffffffffffff16815260200185810385528c818151815260200191508051906020019080838360005b838110156200052e57808201518184015260208101905062000511565b50505050905090810190601f1680156200055c5780820380516001836020036101000a031916815260200191505b5085810384528a818151815260200191508051906020019080838360005b83811015620005975780820151818401526020810190506200057a565b50505050905090810190601f168015620005c55780820380516001836020036101000a031916815260200191505b50858103835289818151815260200191508051906020019080838360005b8381101562000600578082015181840152602081019050620005e3565b50505050905090810190601f1680156200062e5780820380516001836020036101000a031916815260200191505b50858103825288818151815260200191508051906020019080838360005b83811015620006695780820151818401526020810190506200064c565b50505050905090810190601f168015620006975780820380516001836020036101000a031916815260200191505b509b505050505050505050505050604051809103906000f080158015620006c2573d6000803e3d6000fd5b50600080600154815260200190815260200160002060006101000a81548173ffffffffffffffffffffffffffffffffffffffff021916908373ffffffffffffffffffffffffffffffffffffffff160217905550600080600154815260200190815260200160002060009054906101000a900473ffffffffffffffffffffffffffffffffffffffff1673ffffffffffffffffffffffffffffffffffffffff167f387ea218537e939551af33bbc2dd6c53b1fee55d377a0dce288258f972cb3a9c60405160405180910390a260016000815480929190600101919050555050505050505050565b60015481565b60006020528060005260406000206000915054906101000a900473ffffffffffffffffffffffffffffffffffffffff1681565b803414620007ed57600080fd5b50565b611bb480620007ff8339019056fe60806040523480156200001157600080fd5b5060405162001bb438038062001bb4833981018060405260e08110156200003757600080fd5b8101908080516401000000008111156200005057600080fd5b828101905060208101848111156200006757600080fd5b81518560018202830111640100000000821117156200008557600080fd5b5050929190602001805190602001909291908051640100000000811115620000ac57600080fd5b82810190506020810184811115620000c357600080fd5b8151856001820283011164010000000082111715620000e157600080fd5b50509291906020018051640100000000811115620000fe57600080fd5b828101905060208101848111156200011557600080fd5b81518560018202830111640100000000821117156200013357600080fd5b505092919060200180516401000000008111156200015057600080fd5b828101905060208101848111156200016757600080fd5b81518560018202830111640100000000821117156200018557600080fd5b50509291906020018051906020019092919080519060200190929190505050620001ea6040518060400160405280600381526020017f5965730000000000000000000000000000000000000000000000000000000000815250620003c660201b60201c565b620002306040518060400160405280600281526020017f4e6f000000000000000000000000000000000000000000000000000000000000815250620003c660201b60201c565b6040518060e001604052808881526020018781526020018681526020018581526020018481526020018373ffffffffffffffffffffffffffffffffffffffff1681526020018273ffffffffffffffffffffffffffffffffffffffff16815250600560008081526020019081526020016000206000820151816000019080519060200190620002c092919062000444565b50602082015181600101556040820151816002019080519060200190620002e992919062000444565b5060608201518160030190805190602001906200030892919062000444565b5060808201518160040190805190602001906200032792919062000444565b5060a08201518160050160006101000a81548173ffffffffffffffffffffffffffffffffffffffff021916908373ffffffffffffffffffffffffffffffffffffffff16021790555060c08201518160060160006101000a81548173ffffffffffffffffffffffffffffffffffffffff021916908373ffffffffffffffffffffffffffffffffffffffff16021790555090505050505050505050620004f3565b6040518060600160405280600654815260200182815260200160008152506003600060065481526020019081526020016000206000820151816000015560208201518160010190805190602001906200042192919062000444565b506040820151816002015590505060066000815480929190600101919050555050565b828054600181600116156101000203166002900490600052602060002090601f016020900481019282601f106200048757805160ff1916838001178555620004b8565b82800160010185558215620004b8579182015b82811115620004b75782518255916020019190600101906200049a565b5b509050620004c79190620004cb565b5090565b620004f091905b80821115620004ec576000816000905550600101620004d2565b5090565b90565b6116b180620005036000396000f3fe608060405234801561001057600080fd5b50600436106100cf5760003560e01c806370a082311161008c578063a9059cbb11610066578063a9059cbb14610441578063dd62ed3e146104a7578063f0ba84401461051f578063fe61f6fa14610777576100cf565b806370a0823114610327578063a3ec138d1461037f578063a457c2d7146103db576100cf565b80630121b93f146100d4578063095ea7b31461010257806318160ddd1461016857806323b872dd14610186578063395093511461020c578063409e220514610272575b600080fd5b610100600480360360208110156100ea57600080fd5b8101908080359060200190929190505050610795565b005b61014e6004803603604081101561011857600080fd5b81019080803573ffffffffffffffffffffffffffffffffffffffff16906020019092919080359060200190929190505050610987565b604051808215151515815260200191505060405180910390f35b61017061099e565b6040518082815260200191505060405180910390f35b6101f26004803603606081101561019c57600080fd5b81019080803573ffffffffffffffffffffffffffffffffffffffff169060200190929190803573ffffffffffffffffffffffffffffffffffffffff169060200190929190803590602001909291905050506109a8565b604051808215151515815260200191505060405180910390f35b6102586004803603604081101561022257600080fd5b81019080803573ffffffffffffffffffffffffffffffffffffffff16906020019092919080359060200190929190505050610a59565b604051808215151515815260200191505060405180910390f35b61029e6004803603602081101561028857600080fd5b8101908080359060200190929190505050610afe565b6040518084815260200180602001838152602001828103825284818151815260200191508051906020019080838360005b838110156102ea5780820151818401526020810190506102cf565b50505050905090810190601f1680156103175780820380516001836020036101000a031916815260200191505b5094505050505060405180910390f35b6103696004803603602081101561033d57600080fd5b81019080803573ffffffffffffffffffffffffffffffffffffffff169060200190929190505050610bc0565b6040518082815260200191505060405180910390f35b6103c16004803603602081101561039557600080fd5b81019080803573ffffffffffffffffffffffffffffffffffffffff169060200190929190505050610c08565b604051808215151515815260200191505060405180910390f35b610427600480360360408110156103f157600080fd5b81019080803573ffffffffffffffffffffffffffffffffffffffff16906020019092919080359060200190929190505050610c28565b604051808215151515815260200191505060405180910390f35b61048d6004803603604081101561045757600080fd5b81019080803573ffffffffffffffffffffffffffffffffffffffff16906020019092919080359060200190929190505050610ccd565b604051808215151515815260200191505060405180910390f35b610509600480360360408110156104bd57600080fd5b81019080803573ffffffffffffffffffffffffffffffffffffffff169060200190929190803573ffffffffffffffffffffffffffffffffffffffff169060200190929190505050610ce4565b6040518082815260200191505060405180910390f35b61054b6004803603602081101561053557600080fd5b8101908080359060200190929190505050610d6b565b60405180806020018881526020018060200180602001806020018773ffffffffffffffffffffffffffffffffffffffff1673ffffffffffffffffffffffffffffffffffffffff1681526020018673ffffffffffffffffffffffffffffffffffffffff1673ffffffffffffffffffffffffffffffffffffffff16815260200185810385528c818151815260200191508051906020019080838360005b838110156106015780820151818401526020810190506105e6565b50505050905090810190601f16801561062e5780820380516001836020036101000a031916815260200191505b5085810384528a818151815260200191508051906020019080838360005b8381101561066757808201518184015260208101905061064c565b50505050905090810190601f1680156106945780820380516001836020036101000a031916815260200191505b50858103835289818151815260200191508051906020019080838360005b838110156106cd5780820151818401526020810190506106b2565b50505050905090810190601f1680156106fa5780820380516001836020036101000a031916815260200191505b50858103825288818151815260200191508051906020019080838360005b83811015610733578082015181840152602081019050610718565b50505050905090810190601f1680156107605780820380516001836020036101000a031916815260200191505b509b50505050505050505050505060405180910390f35b61077f61104d565b6040518082815260200191505060405180910390f35b600460003373ffffffffffffffffffffffffffffffffffffffff1673ffffffffffffffffffffffffffffffffffffffff16815260200190815260200160002060009054906101000a900460ff1615610855576040517f08c379a00000000000000000000000000000000000000000000000000000000081526004018080602001828103825260128152602001807f7573657220616c726561647920766f746564000000000000000000000000000081525060200191505060405180910390fd5b60008110158015610867575060065481105b6108d9576040517f08c379a000000000000000000000000000000000000000000000000000000000815260040180806020018281038252600e8152602001807f696e76616c6964206f7074696f6e00000000000000000000000000000000000081525060200191505060405180910390fd5b6001600460003373ffffffffffffffffffffffffffffffffffffffff1673ffffffffffffffffffffffffffffffffffffffff16815260200190815260200160002060006101000a81548160ff0219169083151502179055506003600082815260200190815260200160002060020160008154809291906001019190505550807ffff3c900d938d21d0990d786e819f29b8d05c1ef587b462b939609625b684b1660405160405180910390a250565b6000610994338484611053565b6001905092915050565b6000600254905090565b60006109b584848461124a565b610a4e8433610a4985600160008a73ffffffffffffffffffffffffffffffffffffffff1673ffffffffffffffffffffffffffffffffffffffff16815260200190815260200160002060003373ffffffffffffffffffffffffffffffffffffffff1673ffffffffffffffffffffffffffffffffffffffff168152602001908152602001600020546114e690919063ffffffff16565b611053565b600190509392505050565b6000610af43384610aef85600160003373ffffffffffffffffffffffffffffffffffffffff1673ffffffffffffffffffffffffffffffffffffffff16815260200190815260200160002060008973ffffffffffffffffffffffffffffffffffffffff1673ffffffffffffffffffffffffffffffffffffffff1681526020019081526020016000205461156f90919063ffffffff16565b611053565b6001905092915050565b6003602052806000526040600020600091509050806000015490806001018054600181600116156101000203166002900480601f016020809104026020016040519081016040528092919081815260200182805460018160011615610100020316600290048015610bb05780601f10610b8557610100808354040283529160200191610bb0565b820191906000526020600020905b815481529060010190602001808311610b9357829003601f168201915b5050505050908060020154905083565b60008060008373ffffffffffffffffffffffffffffffffffffffff1673ffffffffffffffffffffffffffffffffffffffff168152602001908152602001600020549050919050565b60046020528060005260406000206000915054906101000a900460ff1681565b6000610cc33384610cbe85600160003373ffffffffffffffffffffffffffffffffffffffff1673ffffffffffffffffffffffffffffffffffffffff16815260200190815260200160002060008973ffffffffffffffffffffffffffffffffffffffff1673ffffffffffffffffffffffffffffffffffffffff168152602001908152602001600020546114e690919063ffffffff16565b611053565b6001905092915050565b6000610cda33848461124a565b6001905092915050565b6000600160008473ffffffffffffffffffffffffffffffffffffffff1673ffffffffffffffffffffffffffffffffffffffff16815260200190815260200160002060008373ffffffffffffffffffffffffffffffffffffffff1673ffffffffffffffffffffffffffffffffffffffff16815260200190815260200160002054905092915050565b6005602052806000526040600020600091509050806000018054600181600116156101000203166002900480601f016020809104026020016040519081016040528092919081815260200182805460018160011615610100020316600290048015610e175780601f10610dec57610100808354040283529160200191610e17565b820191906000526020600020905b815481529060010190602001808311610dfa57829003601f168201915b505050505090806001015490806002018054600181600116156101000203166002900480601f016020809104026020016040519081016040528092919081815260200182805460018160011615610100020316600290048015610ebb5780601f10610e9057610100808354040283529160200191610ebb565b820191906000526020600020905b815481529060010190602001808311610e9e57829003601f168201915b505050505090806003018054600181600116156101000203166002900480601f016020809104026020016040519081016040528092919081815260200182805460018160011615610100020316600290048015610f595780601f10610f2e57610100808354040283529160200191610f59565b820191906000526020600020905b815481529060010190602001808311610f3c57829003601f168201915b505050505090806004018054600181600116156101000203166002900480601f016020809104026020016040519081016040528092919081815260200182805460018160011615610100020316600290048015610ff75780601f10610fcc57610100808354040283529160200191610ff7565b820191906000526020600020905b815481529060010190602001808311610fda57829003601f168201915b5050505050908060050160009054906101000a900473ffffffffffffffffffffffffffffffffffffffff16908060060160009054906101000a900473ffffffffffffffffffffffffffffffffffffffff16905087565b60065481565b600073ffffffffffffffffffffffffffffffffffffffff168373ffffffffffffffffffffffffffffffffffffffff1614156110d9576040517f08c379a00000000000000000000000000000000000000000000000000000000081526004018080602001828103825260248152602001806116626024913960400191505060405180910390fd5b600073ffffffffffffffffffffffffffffffffffffffff168273ffffffffffffffffffffffffffffffffffffffff16141561115f576040517f08c379a000000000000000000000000000000000000000000000000000000000815260040180806020018281038252602281526020018061161b6022913960400191505060405180910390fd5b80600160008573ffffffffffffffffffffffffffffffffffffffff1673ffffffffffffffffffffffffffffffffffffffff16815260200190815260200160002060008473ffffffffffffffffffffffffffffffffffffffff1673ffffffffffffffffffffffffffffffffffffffff168152602001908152602001600020819055508173ffffffffffffffffffffffffffffffffffffffff168373ffffffffffffffffffffffffffffffffffffffff167f8c5be1e5ebec7d5bd14f71427d1e84f3dd0314c0f7b2291e5b200ac8c7c3b925836040518082815260200191505060405180910390a3505050565b600073ffffffffffffffffffffffffffffffffffffffff168373ffffffffffffffffffffffffffffffffffffffff1614156112d0576040517f08c379a000000000000000000000000000000000000000000000000000000000815260040180806020018281038252602581526020018061163d6025913960400191505060405180910390fd5b600073ffffffffffffffffffffffffffffffffffffffff168273ffffffffffffffffffffffffffffffffffffffff161415611356576040517f08c379a00000000000000000000000000000000000000000000000000000000081526004018080602001828103825260238152602001806115f86023913960400191505060405180910390fd5b6113a7816000808673ffffffffffffffffffffffffffffffffffffffff1673ffffffffffffffffffffffffffffffffffffffff168152602001908152602001600020546114e690919063ffffffff16565b6000808573ffffffffffffffffffffffffffffffffffffffff1673ffffffffffffffffffffffffffffffffffffffff1681526020019081526020016000208190555061143a816000808573ffffffffffffffffffffffffffffffffffffffff1673ffffffffffffffffffffffffffffffffffffffff1681526020019081526020016000205461156f90919063ffffffff16565b6000808473ffffffffffffffffffffffffffffffffffffffff1673ffffffffffffffffffffffffffffffffffffffff168152602001908152602001600020819055508173ffffffffffffffffffffffffffffffffffffffff168373ffffffffffffffffffffffffffffffffffffffff167fddf252ad1be2c89b69c2b068fc378daa952ba7f163c4a11628f55a4df523b3ef836040518082815260200191505060405180910390a3505050565b60008282111561155e576040517f08c379a000000000000000000000000000000000000000000000000000000000815260040180806020018281038252601e8152602001807f536166654d6174683a207375627472616374696f6e206f766572666c6f77000081525060200191505060405180910390fd5b600082840390508091505092915050565b6000808284019050838110156115ed576040517f08c379a000000000000000000000000000000000000000000000000000000000815260040180806020018281038252601b8152602001807f536166654d6174683a206164646974696f6e206f766572666c6f77000000000081525060200191505060405180910390fd5b809150509291505056fe45524332303a207472616e7366657220746f20746865207a65726f206164647265737345524332303a20617070726f766520746f20746865207a65726f206164647265737345524332303a207472616e736665722066726f6d20746865207a65726f206164647265737345524332303a20617070726f76652066726f6d20746865207a65726f2061646472657373a165627a7a723058209efd46db329b3de3197e5fd8df15d292717ae07480ea21b5f38c83b1ab9ba2de0029a165627a7a72305820c7b23aeaf8bf2ec0e856d3e3b18197a6c9888ee2fcb2074a71e4fa2019df3b660029",
  "source": "pragma solidity ^0.5.0;\n\nimport \"./Budget.sol\";\n\ncontract BudgetCreator {\n    event NewContract(address indexed _budget_id);\n\n    //address public withdrawer; //basically owner of an instance of this contract\n\n    mapping(uint => Budget) public budgets;\n    uint public contract_count;\n\n    function add_contract(string memory _name,\n                          uint _amount,\n                          string memory _description,\n                          string memory _creation,\n                          string memory _deadline,\n                          address _sender,\n                          address _receiver\n                          ) public {\n        budgets[contract_count] = new Budget(_name, _amount, _description, _creation, _deadline, _sender, _receiver);\n        emit NewContract(address(budgets[contract_count]));\n        contract_count++;\n        //withdrawer = msg.sender;\n    }\n\n    function () external payable {\n        //0xaD99326B61c688472a55055C4C78B2cFB70393D2.transfer(msg.value);\n    }\n\n    function getBalance() public view returns (uint) {\n        return address(this).balance;\n    }\n\n    function deposit(uint amount) public payable {\n        require(msg.value == amount);\n    }\n}",
  "sourcePath": "/home/kjamal00/blockchain/solonedu/views/budget/contracts/BudgetCreator.sol",
  "compiler": {
    "name": "solc",
    "version": "0.5.8+commit.23d335f2.Emscripten.clang"
  },
  "schemaVersion": "3.0.11",
  "updatedAt": "2019-08-01T19:49:17.189Z",
  "devdoc": {
    "methods": {}
  },
  "userdoc": {
    "methods": {}
  }
}