{
  "contractName": "Budget",
  "abi": [
    {
      "constant": true,
      "inputs": [
        {
          "name": "",
          "type": "uint256"
        }
      ],
      "name": "options",
      "outputs": [
        {
          "name": "id",
          "type": "uint256"
        },
        {
          "name": "name",
          "type": "string"
        },
        {
          "name": "vote_count",
          "type": "uint256"
        }
      ],
      "payable": false,
      "stateMutability": "view",
      "type": "function"
    },
    {
      "constant": true,
      "inputs": [
        {
          "name": "",
          "type": "address"
        }
      ],
      "name": "voters",
      "outputs": [
        {
          "name": "",
          "type": "bool"
        }
      ],
      "payable": false,
      "stateMutability": "view",
      "type": "function"
    },
    {
      "constant": true,
      "inputs": [
        {
          "name": "",
          "type": "uint256"
        }
      ],
      "name": "data",
      "outputs": [
        {
          "name": "name",
          "type": "string"
        },
        {
          "name": "amount",
          "type": "uint256"
        },
        {
          "name": "description",
          "type": "string"
        },
        {
          "name": "creation",
          "type": "string"
        },
        {
          "name": "deadline",
          "type": "string"
        },
        {
          "name": "has_sent",
          "type": "bool"
        },
        {
          "name": "receiver",
          "type": "address"
        }
      ],
      "payable": false,
      "stateMutability": "view",
      "type": "function"
    },
    {
      "constant": true,
      "inputs": [],
      "name": "option_count",
      "outputs": [
        {
          "name": "",
          "type": "uint256"
        }
      ],
      "payable": false,
      "stateMutability": "view",
      "type": "function"
    },
    {
      "inputs": [
        {
          "name": "_name",
          "type": "string"
        },
        {
          "name": "_amount",
          "type": "uint256"
        },
        {
          "name": "_description",
          "type": "string"
        },
        {
          "name": "_creation",
          "type": "string"
        },
        {
          "name": "_deadline",
          "type": "string"
        },
        {
          "name": "_receiver",
          "type": "address"
        }
      ],
      "payable": false,
      "stateMutability": "nonpayable",
      "type": "constructor"
    },
    {
      "anonymous": false,
      "inputs": [
        {
          "indexed": true,
          "name": "_option_id",
          "type": "uint256"
        }
      ],
      "name": "votedEvent",
      "type": "event"
    },
    {
      "constant": false,
      "inputs": [],
      "name": "sent_yet",
      "outputs": [],
      "payable": false,
      "stateMutability": "nonpayable",
      "type": "function"
    },
    {
      "constant": false,
      "inputs": [
        {
          "name": "_option_id",
          "type": "uint256"
        }
      ],
      "name": "vote",
      "outputs": [],
      "payable": false,
      "stateMutability": "nonpayable",
      "type": "function"
    }
  ],
  "bytecode": "0x60806040523480156200001157600080fd5b5060405162000ebf38038062000ebf833981018060405260c08110156200003757600080fd5b8101908080516401000000008111156200005057600080fd5b828101905060208101848111156200006757600080fd5b81518560018202830111640100000000821117156200008557600080fd5b5050929190602001805190602001909291908051640100000000811115620000ac57600080fd5b82810190506020810184811115620000c357600080fd5b8151856001820283011164010000000082111715620000e157600080fd5b50509291906020018051640100000000811115620000fe57600080fd5b828101905060208101848111156200011557600080fd5b81518560018202830111640100000000821117156200013357600080fd5b505092919060200180516401000000008111156200015057600080fd5b828101905060208101848111156200016757600080fd5b81518560018202830111640100000000821117156200018557600080fd5b505092919060200180519060200190929190505050620001e06040518060400160405280600381526020017f59657300000000000000000000000000000000000000000000000000000000008152506200038160201b60201c565b620002266040518060400160405280600281526020017f4e6f0000000000000000000000000000000000000000000000000000000000008152506200038160201b60201c565b6040518060e001604052808781526020018681526020018581526020018481526020018381526020016000151581526020018273ffffffffffffffffffffffffffffffffffffffff16815250600260008081526020019081526020016000206000820151816000019080519060200190620002a3929190620003fe565b50602082015181600101556040820151816002019080519060200190620002cc929190620003fe565b506060820151816003019080519060200190620002eb929190620003fe565b5060808201518160040190805190602001906200030a929190620003fe565b5060a08201518160050160006101000a81548160ff02191690831515021790555060c08201518160050160016101000a81548173ffffffffffffffffffffffffffffffffffffffff021916908373ffffffffffffffffffffffffffffffffffffffff160217905550905050505050505050620004ad565b6040518060600160405280600354815260200182815260200160008152506000806003548152602001908152602001600020600082015181600001556020820151816001019080519060200190620003db929190620003fe565b506040820151816002015590505060036000815480929190600101919050555050565b828054600181600116156101000203166002900490600052602060002090601f016020900481019282601f106200044157805160ff191683800117855562000472565b8280016001018555821562000472579182015b828111156200047157825182559160200191906001019062000454565b5b50905062000481919062000485565b5090565b620004aa91905b80821115620004a65760008160009055506001016200048c565b5090565b90565b610a0280620004bd6000396000f3fe608060405234801561001057600080fd5b50600436106100625760003560e01c80630121b93f146100675780632415ef4f14610095578063409e22051461009f578063a3ec138d14610154578063f0ba8440146101b0578063fe61f6fa146103e0575b600080fd5b6100936004803603602081101561007d57600080fd5b81019080803590602001909291905050506103fe565b005b61009d6105ee565b005b6100cb600480360360208110156100b557600080fd5b810190808035906020019092919050505061061f565b6040518084815260200180602001838152602001828103825284818151815260200191508051906020019080838360005b838110156101175780820151818401526020810190506100fc565b50505050905090810190601f1680156101445780820380516001836020036101000a031916815260200191505b5094505050505060405180910390f35b6101966004803603602081101561016a57600080fd5b81019080803573ffffffffffffffffffffffffffffffffffffffff1690602001909291905050506106e1565b604051808215151515815260200191505060405180910390f35b6101dc600480360360208110156101c657600080fd5b8101908080359060200190929190505050610701565b6040518080602001888152602001806020018060200180602001871515151581526020018673ffffffffffffffffffffffffffffffffffffffff1673ffffffffffffffffffffffffffffffffffffffff16815260200185810385528c818151815260200191508051906020019080838360005b8381101561026a57808201518184015260208101905061024f565b50505050905090810190601f1680156102975780820380516001836020036101000a031916815260200191505b5085810384528a818151815260200191508051906020019080838360005b838110156102d05780820151818401526020810190506102b5565b50505050905090810190601f1680156102fd5780820380516001836020036101000a031916815260200191505b50858103835289818151815260200191508051906020019080838360005b8381101561033657808201518184015260208101905061031b565b50505050905090810190601f1680156103635780820380516001836020036101000a031916815260200191505b50858103825288818151815260200191508051906020019080838360005b8381101561039c578082015181840152602081019050610381565b50505050905090810190601f1680156103c95780820380516001836020036101000a031916815260200191505b509b50505050505050505050505060405180910390f35b6103e86109d0565b6040518082815260200191505060405180910390f35b600160003373ffffffffffffffffffffffffffffffffffffffff1673ffffffffffffffffffffffffffffffffffffffff16815260200190815260200160002060009054906101000a900460ff16156104be576040517f08c379a00000000000000000000000000000000000000000000000000000000081526004018080602001828103825260128152602001807f7573657220616c726561647920766f746564000000000000000000000000000081525060200191505060405180910390fd5b600081101580156104d0575060035481105b610542576040517f08c379a000000000000000000000000000000000000000000000000000000000815260040180806020018281038252600e8152602001807f696e76616c6964206f7074696f6e00000000000000000000000000000000000081525060200191505060405180910390fd5b60018060003373ffffffffffffffffffffffffffffffffffffffff1673ffffffffffffffffffffffffffffffffffffffff16815260200190815260200160002060006101000a81548160ff02191690831515021790555060008082815260200190815260200160002060020160008154809291906001019190505550807ffff3c900d938d21d0990d786e819f29b8d05c1ef587b462b939609625b684b1660405160405180910390a250565b60016002600080815260200190815260200160002060050160006101000a81548160ff021916908315150217905550565b6000602052806000526040600020600091509050806000015490806001018054600181600116156101000203166002900480601f0160208091040260200160405190810160405280929190818152602001828054600181600116156101000203166002900480156106d15780601f106106a6576101008083540402835291602001916106d1565b820191906000526020600020905b8154815290600101906020018083116106b457829003601f168201915b5050505050908060020154905083565b60016020528060005260406000206000915054906101000a900460ff1681565b6002602052806000526040600020600091509050806000018054600181600116156101000203166002900480601f0160208091040260200160405190810160405280929190818152602001828054600181600116156101000203166002900480156107ad5780601f10610782576101008083540402835291602001916107ad565b820191906000526020600020905b81548152906001019060200180831161079057829003601f168201915b505050505090806001015490806002018054600181600116156101000203166002900480601f0160208091040260200160405190810160405280929190818152602001828054600181600116156101000203166002900480156108515780601f1061082657610100808354040283529160200191610851565b820191906000526020600020905b81548152906001019060200180831161083457829003601f168201915b505050505090806003018054600181600116156101000203166002900480601f0160208091040260200160405190810160405280929190818152602001828054600181600116156101000203166002900480156108ef5780601f106108c4576101008083540402835291602001916108ef565b820191906000526020600020905b8154815290600101906020018083116108d257829003601f168201915b505050505090806004018054600181600116156101000203166002900480601f01602080910402602001604051908101604052809291908181526020018280546001816001161561010002031660029004801561098d5780601f106109625761010080835404028352916020019161098d565b820191906000526020600020905b81548152906001019060200180831161097057829003601f168201915b5050505050908060050160009054906101000a900460ff16908060050160019054906101000a900473ffffffffffffffffffffffffffffffffffffffff16905087565b6003548156fea165627a7a723058204cd2a30ea7e60531d726ee485190102296bfec042839179dfb4218e867da330e0029",
  "source": "pragma solidity ^0.5.0;\r\n\r\ncontract Budget{\r\n\r\n    event votedEvent(uint indexed _option_id);\r\n\r\n    struct Data {\r\n        string name;\r\n        uint amount;\r\n        string description;\r\n        string creation;\r\n        string deadline;\r\n        bool has_sent;\r\n        address receiver;\r\n    }\r\n\r\n    struct Option{\r\n        uint id;\r\n        string name;\r\n        uint vote_count;\r\n    }\r\n\r\n    mapping(uint => Option) public options;\r\n    mapping(address => bool) public voters;\r\n    mapping(uint => Data) public data;\r\n    uint public option_count;\r\n\r\n    constructor(string memory _name,\r\n                uint _amount,\r\n                string memory _description,\r\n                string memory _creation,\r\n                string memory _deadline,\r\n                address _receiver) public {\r\n        add_option(\"Yes\");\r\n        add_option(\"No\");\r\n        data[0] = Data(_name, _amount, _description, _creation, _deadline, false, _receiver);\r\n    }\r\n\r\n    function sent_yet() public { data[0].has_sent = true; }\r\n\r\n    function add_option(string memory _name) private {\r\n        options[option_count] = Option(option_count, _name, 0);\r\n        option_count++;\r\n    }\r\n\r\n    function vote(uint _option_id) public {\r\n        require(!voters[msg.sender], \"user already voted\");\r\n        require(_option_id >= 0 && _option_id < option_count, \"invalid option\");\r\n        voters[msg.sender] = true;\r\n        options[_option_id].vote_count++;\r\n        emit votedEvent(_option_id);\r\n    }\r\n\r\n}\r\n",
  "sourcePath": "C:\\Users\\shark\\Documents\\solonedu\\views\\budget\\contracts\\Budget.sol",
  "compiler": {
    "name": "solc",
    "version": "0.5.8+commit.23d335f2.Emscripten.clang"
  },
  "schemaVersion": "3.0.11",
  "updatedAt": "2019-08-02T11:10:49.869Z",
  "devdoc": {
    "methods": {}
  },
  "userdoc": {
    "methods": {}
  }
}